{
  "contractName": "Battleship",
  "abi": [
    {
      "constant": false,
      "inputs": [],
      "name": "declare",
      "outputs": [
        {
          "internalType": "uint256",
          "name": "",
          "type": "uint256"
        }
      ],
      "payable": false,
      "stateMutability": "nonpayable",
      "type": "function"
    },
    {
      "constant": false,
      "inputs": [
        {
          "internalType": "uint256",
          "name": "gameID",
          "type": "uint256"
        }
      ],
      "name": "join",
      "outputs": [
        {
          "internalType": "bool",
          "name": "",
          "type": "bool"
        }
      ],
      "payable": false,
      "stateMutability": "nonpayable",
      "type": "function"
    },
    {
      "constant": false,
      "inputs": [
        {
          "internalType": "uint256",
          "name": "gameID",
          "type": "uint256"
        },
        {
          "internalType": "uint64",
          "name": "board",
          "type": "uint64"
        }
      ],
      "name": "place",
      "outputs": [
        {
          "internalType": "bool",
          "name": "",
          "type": "bool"
        }
      ],
      "payable": false,
      "stateMutability": "nonpayable",
      "type": "function"
    },
    {
      "constant": false,
      "inputs": [
        {
          "internalType": "uint256",
          "name": "gameID",
          "type": "uint256"
        },
        {
          "internalType": "uint256",
          "name": "square",
          "type": "uint256"
        }
      ],
      "name": "fire",
      "outputs": [
        {
          "internalType": "bool",
          "name": "",
          "type": "bool"
        }
      ],
      "payable": false,
      "stateMutability": "nonpayable",
      "type": "function"
    },
    {
      "constant": false,
      "inputs": [
        {
          "internalType": "uint64",
          "name": "proof",
          "type": "uint64"
        },
        {
          "internalType": "uint256",
          "name": "result",
          "type": "uint256"
        }
      ],
      "name": "shotresult",
      "outputs": [
        {
          "internalType": "bool",
          "name": "",
          "type": "bool"
        }
      ],
      "payable": false,
      "stateMutability": "nonpayable",
      "type": "function"
    }
  ],
  "bytecode": "0x608060405260008055600060015534801561001957600080fd5b50611596806100296000396000f3fe608060405234801561001057600080fd5b50600436106100575760003560e01c8063049878f31461005c57806341852aa5146100a25780634ccde688146100fc5780638ef61e931461011a578063eaae7fe21461016a575b600080fd5b6100886004803603602081101561007257600080fd5b81019080803590602001909291905050506101c4565b604051808215151515815260200191505060405180910390f35b6100e2600480360360408110156100b857600080fd5b81019080803567ffffffffffffffff16906020019092919080359060200190929190505050610646565b604051808215151515815260200191505060405180910390f35b61010461065f565b6040518082815260200191505060405180910390f35b6101506004803603604081101561013057600080fd5b8101908080359060200190929190803590602001909291905050506108d1565b604051808215151515815260200191505060405180910390f35b6101aa6004803603604081101561018057600080fd5b8101908080359060200190929190803567ffffffffffffffff169060200190929190505050610d7a565b604051808215151515815260200191505060405180910390f35b60006101ce611436565b60026000848152602001908152602001600020604051806101400160405290816000820160009054906101000a900473ffffffffffffffffffffffffffffffffffffffff1673ffffffffffffffffffffffffffffffffffffffff1673ffffffffffffffffffffffffffffffffffffffff1681526020016001820160009054906101000a900473ffffffffffffffffffffffffffffffffffffffff1673ffffffffffffffffffffffffffffffffffffffff1673ffffffffffffffffffffffffffffffffffffffff1681526020016001820160149054906101000a900467ffffffffffffffff1667ffffffffffffffff1667ffffffffffffffff1681526020016002820160009054906101000a900467ffffffffffffffff1667ffffffffffffffff1667ffffffffffffffff16815260200160038201606480602002604051908101604052809291908260648015610339576020028201915b815481526020019060010190808311610325575b505050505081526020016067820160648060200260405190810160405280929190826064801561037e576020028201915b81548152602001906001019080831161036a575b5050505050815260200160cb820154815260200160cc820154815260200160cd820160009054906101000a900460ff1615151515815260200160cd820160019054906101000a900460ff16151515158152505090506001151581610120015115151480156103f55750600015158161010001511515145b6103fe57600080fd5b33816020019073ffffffffffffffffffffffffffffffffffffffff16908173ffffffffffffffffffffffffffffffffffffffff16815250506000816060019067ffffffffffffffff16908167ffffffffffffffff168152505060008090505b606481101561048e5760008260a00151826064811061047857fe5b602002018181525050808060010191505061045d565b50600181610100019015159081151581525050806002600085815260200190815260200160002060008201518160000160006101000a81548173ffffffffffffffffffffffffffffffffffffffff021916908373ffffffffffffffffffffffffffffffffffffffff16021790555060208201518160010160006101000a81548173ffffffffffffffffffffffffffffffffffffffff021916908373ffffffffffffffffffffffffffffffffffffffff16021790555060408201518160010160146101000a81548167ffffffffffffffff021916908367ffffffffffffffff16021790555060608201518160020160006101000a81548167ffffffffffffffff021916908367ffffffffffffffff1602179055506080820151816003019060646105b89291906114d9565b5060a0820151816067019060646105d09291906114d9565b5060c08201518160cb015560e08201518160cc01556101008201518160cd0160006101000a81548160ff0219169083151502179055506101208201518160cd0160016101000a81548160ff0219169083151502179055509050506001600081548092919060010191905055506001915050919050565b600080610653848461142a565b90508091505092915050565b6000610669611436565b33816000019073ffffffffffffffffffffffffffffffffffffffff16908173ffffffffffffffffffffffffffffffffffffffff16815250506000816040019067ffffffffffffffff16908167ffffffffffffffff168152505060008090505b60648110156106f9576000826080015182606481106106e357fe5b60200201818152505080806001019150506106c8565b5060018160e0018181525050600081610100019015159081151581525050600181610120019015159081151581525050600060019050816002600083815260200190815260200160002060008201518160000160006101000a81548173ffffffffffffffffffffffffffffffffffffffff021916908373ffffffffffffffffffffffffffffffffffffffff16021790555060208201518160010160006101000a81548173ffffffffffffffffffffffffffffffffffffffff021916908373ffffffffffffffffffffffffffffffffffffffff16021790555060408201518160010160146101000a81548167ffffffffffffffff021916908367ffffffffffffffff16021790555060608201518160020160006101000a81548167ffffffffffffffff021916908367ffffffffffffffff1602179055506080820151816003019060646108469291906114d9565b5060a08201518160670190606461085e9291906114d9565b5060c08201518160cb015560e08201518160cc01556101008201518160cd0160006101000a81548160ff0219169083151502179055506101208201518160cd0160016101000a81548160ff0219169083151502179055509050506000808154809291906001019190505550809250505090565b60006108db611436565b60026000858152602001908152602001600020604051806101400160405290816000820160009054906101000a900473ffffffffffffffffffffffffffffffffffffffff1673ffffffffffffffffffffffffffffffffffffffff1673ffffffffffffffffffffffffffffffffffffffff1681526020016001820160009054906101000a900473ffffffffffffffffffffffffffffffffffffffff1673ffffffffffffffffffffffffffffffffffffffff1673ffffffffffffffffffffffffffffffffffffffff1681526020016001820160149054906101000a900467ffffffffffffffff1667ffffffffffffffff1667ffffffffffffffff1681526020016002820160009054906101000a900467ffffffffffffffff1667ffffffffffffffff1667ffffffffffffffff16815260200160038201606480602002604051908101604052809291908260648015610a46576020028201915b815481526020019060010190808311610a32575b5050505050815260200160678201606480602002604051908101604052809291908260648015610a8b576020028201915b815481526020019060010190808311610a77575b5050505050815260200160cb820154815260200160cc820154815260200160cd820160009054906101000a900460ff1615151515815260200160cd820160019054906101000a900460ff1615151515815250509050600115158161010001511515148015610b0857506000816040015167ffffffffffffffff1614155b8015610b2357506000816060015167ffffffffffffffff1614155b610b2c57600080fd5b3373ffffffffffffffffffffffffffffffffffffffff16816000015173ffffffffffffffffffffffffffffffffffffffff16148015610b6f575060018160e00151145b80610bb957503373ffffffffffffffffffffffffffffffffffffffff16816020015173ffffffffffffffffffffffffffffffffffffffff16148015610bb8575060028160e00151145b5b610bc257600080fd5b60008310158015610bd35750606483105b610bdc57600080fd5b828160c0018181525050806002600086815260200190815260200160002060008201518160000160006101000a81548173ffffffffffffffffffffffffffffffffffffffff021916908373ffffffffffffffffffffffffffffffffffffffff16021790555060208201518160010160006101000a81548173ffffffffffffffffffffffffffffffffffffffff021916908373ffffffffffffffffffffffffffffffffffffffff16021790555060408201518160010160146101000a81548167ffffffffffffffff021916908367ffffffffffffffff16021790555060608201518160020160006101000a81548167ffffffffffffffff021916908367ffffffffffffffff160217905550608082015181600301906064610cfd9291906114d9565b5060a082015181606701906064610d159291906114d9565b5060c08201518160cb015560e08201518160cc01556101008201518160cd0160006101000a81548160ff0219169083151502179055506101208201518160cd0160016101000a81548160ff021916908315150217905550905050600191505092915050565b6000610d84611436565b60026000858152602001908152602001600020604051806101400160405290816000820160009054906101000a900473ffffffffffffffffffffffffffffffffffffffff1673ffffffffffffffffffffffffffffffffffffffff1673ffffffffffffffffffffffffffffffffffffffff1681526020016001820160009054906101000a900473ffffffffffffffffffffffffffffffffffffffff1673ffffffffffffffffffffffffffffffffffffffff1673ffffffffffffffffffffffffffffffffffffffff1681526020016001820160149054906101000a900467ffffffffffffffff1667ffffffffffffffff1667ffffffffffffffff1681526020016002820160009054906101000a900467ffffffffffffffff1667ffffffffffffffff1667ffffffffffffffff16815260200160038201606480602002604051908101604052809291908260648015610eef576020028201915b815481526020019060010190808311610edb575b5050505050815260200160678201606480602002604051908101604052809291908260648015610f34576020028201915b815481526020019060010190808311610f20575b5050505050815260200160cb820154815260200160cc820154815260200160cd820160009054906101000a900460ff1615151515815260200160cd820160019054906101000a900460ff161515151581525050905060011515816101000151151514801561100b57503373ffffffffffffffffffffffffffffffffffffffff16816000015173ffffffffffffffffffffffffffffffffffffffff16148061100a57503373ffffffffffffffffffffffffffffffffffffffff16816020015173ffffffffffffffffffffffffffffffffffffffff16145b5b61101457600080fd5b3373ffffffffffffffffffffffffffffffffffffffff16816000015173ffffffffffffffffffffffffffffffffffffffff1614801561106157506000816040015167ffffffffffffffff16145b156112195782816040019067ffffffffffffffff16908167ffffffffffffffff1681525050806002600086815260200190815260200160002060008201518160000160006101000a81548173ffffffffffffffffffffffffffffffffffffffff021916908373ffffffffffffffffffffffffffffffffffffffff16021790555060208201518160010160006101000a81548173ffffffffffffffffffffffffffffffffffffffff021916908373ffffffffffffffffffffffffffffffffffffffff16021790555060408201518160010160146101000a81548167ffffffffffffffff021916908367ffffffffffffffff16021790555060608201518160020160006101000a81548167ffffffffffffffff021916908367ffffffffffffffff16021790555060808201518160030190606461119d9291906114d9565b5060a0820151816067019060646111b59291906114d9565b5060c08201518160cb015560e08201518160cc01556101008201518160cd0160006101000a81548160ff0219169083151502179055506101208201518160cd0160016101000a81548160ff0219169083151502179055509050506001915050611424565b3373ffffffffffffffffffffffffffffffffffffffff16816020015173ffffffffffffffffffffffffffffffffffffffff1614801561126657506000816060015167ffffffffffffffff16145b1561141e5782816060019067ffffffffffffffff16908167ffffffffffffffff1681525050806002600086815260200190815260200160002060008201518160000160006101000a81548173ffffffffffffffffffffffffffffffffffffffff021916908373ffffffffffffffffffffffffffffffffffffffff16021790555060208201518160010160006101000a81548173ffffffffffffffffffffffffffffffffffffffff021916908373ffffffffffffffffffffffffffffffffffffffff16021790555060408201518160010160146101000a81548167ffffffffffffffff021916908367ffffffffffffffff16021790555060608201518160020160006101000a81548167ffffffffffffffff021916908367ffffffffffffffff1602179055506080820151816003019060646113a29291906114d9565b5060a0820151816067019060646113ba9291906114d9565b5060c08201518160cb015560e08201518160cc01556101008201518160cd0160006101000a81548160ff0219169083151502179055506101208201518160cd0160016101000a81548160ff0219169083151502179055509050506001915050611424565b60009150505b92915050565b60006001905092915050565b604051806101400160405280600073ffffffffffffffffffffffffffffffffffffffff168152602001600073ffffffffffffffffffffffffffffffffffffffff168152602001600067ffffffffffffffff168152602001600067ffffffffffffffff1681526020016114a6611519565b81526020016114b3611519565b815260200160008152602001600081526020016000151581526020016000151581525090565b8260648101928215611508579160200282015b828111156115075782518255916020019190600101906114ec565b5b509050611515919061153c565b5090565b60405180610c800160405280606490602082028038833980820191505090505090565b61155e91905b8082111561155a576000816000905550600101611542565b5090565b9056fea265627a7a72315820133b6c16636950172c45988c9ba942713f4c3bc5084e0fa8a8ecb014e951f4eb64736f6c63430005100032",
  "source": "pragma solidity ^0.5.0;\n\ncontract Battleship {\n\n    uint constant n_shipsquares = 17;\n\n    uint n_games = 0;\n    uint n_activegames = 0;\n    \n    struct Game {\n        address p1;\n        address p2;\n        uint64 board1;\n        uint64 board2;\n        uint[100] revealed1; //0=unrevealed; 1=miss; 2=hit\n        uint[100] revealed2;\n        uint candidateShot; //-1 when no candidate\n        uint turn; // 1 for p1, 2 for p2\n        bool active;\n        bool exists; // bool defaults to false\n    }\n\n    mapping(uint => Game) private games;\n\n    function declare() external returns(uint){\n        // Create new game for a user and give them gameID \n        // TODO: randomize gameID as 5 digit number or something\n        Game memory newgame;\n        newgame.p1 = msg.sender;\n        newgame.board1 = 0;\n        for(uint i = 0; i < 100; i++) {\n            newgame.revealed1[i] = 0;\n        }\n        newgame.turn = 1;\n        newgame.active = false;\n        newgame.exists = true;\n\n        uint gameID = 1;\n        games[gameID] = newgame;\n\n        n_games++;\n        return gameID;\n    }\n\n    function join(uint gameID) external returns(bool) {\n        // Allow player to join valid game if they present gameID and noone else is playing\n        Game memory game = games[gameID];\n        require(game.exists == true && game.active == false);\n\n        game.p2 = msg.sender;\n        game.board2 = 0;\n        for(uint i = 0; i < 100; i++) {\n            game.revealed2[i] = 0;\n        }\n        game.active = true;\n        games[gameID] = game;\n\n        n_activegames++;\n        return true;\n    } \n\n    function place(uint gameID, uint64 board) external returns(bool) {\n        Game memory game = games[gameID];\n        require(game.active == true && (game.p1 == msg.sender || game.p2 == msg.sender));\n\n        // player 1 attempting to set on empty board\n        if (game.p1 == msg.sender && game.board1 == 0) {\n            game.board1 = board;\n            games[gameID] = game;\n            return true;\n        }\n        // player 2 attempting to set on empty board\n        else if (game.p2 == msg.sender && game.board2 == 0) {\n            game.board2 = board;\n            games[gameID] = game;\n            return true;\n        }\n        return false;\n    }\n\n    function fire(uint gameID, uint square) external returns(bool) {\n        Game memory game = games[gameID];\n        require(game.active == true && game.board1 != 0 && game.board2 != 0);\n        require((game.p1 == msg.sender && game.turn == 1) || (game.p2 == msg.sender && game.turn == 2));\n        require(square >= 0 && square < 100);\n\n        game.candidateShot = square;\n        games[gameID] = game;\n        return true;\n        // returns true if square sucessfully updated\n    }\n\n    // TODO: implement zksnark verification\n    function verify(uint64 proof, uint result) internal view returns(bool) {\n        return true;\n    }\n    // verify proof and \n    function shotresult(uint64 proof, uint result) external returns(bool) {\n        bool verified = verify(proof, result);\n        if (verified) {\n\n        }\n        // returns true if successfully verifies proof and update was made\n        return verified;\n    }\n\n    //TODO: check game end condition based on # of hits\n    //TODO: end game and reset states if finished\n\n    // NOTE: we don't need getter functions because private variables only prevent \n    // other contracts from accessing info, not the whole world\n}",
  "sourcePath": "/Users/jason/Documents/battleship/contracts/Battleship.sol",
  "compiler": {
    "name": "solc",
    "version": "0.5.16+commit.9c3226ce.Emscripten.clang"
  },
  "schemaVersion": "3.1.0",
  "updatedAt": "2020-05-05T09:32:24.718Z",
  "networkType": "ethereum",
  "devdoc": {
    "methods": {}
  },
  "userdoc": {
    "methods": {}
  }
}